:10101A0012000E1200031212847F007EC27D017C30
:10102A0000120DBA12129E7F007EC27D017C001250
:10103A000F781212B57F007EC27D017C00120FC9A3
:10104A001212CC1212F912130C7FC87E001212016E
:10105A00D2971211CA120E7A120ED0120E2280F2F2
:0B00F800FFFF4457494E5435020D75C0
:1012F9005389FC438901758CBC758ACDD2A9D2AFBB
:03130900D28C2261
:10130C005389CF438910758DBC758BCDD2ABD2AFC1
:03131C00D28E224C
:03000B0002002EC2
:10002E00C0E0C083C082C0D0758CBC758ACD908074
:10003E0000E0D394004003E014F0D0D0D082D083FF
:03004E00D0E032CD
:1008110000000000000000000000000000000000D7
:1008210000000000000000000000000000000000C7
:1008310000000000000000000000000000000000B7
:1008410000000000000000000000000000000000A7
:100851000000000000000000000000000000000097
:100861000000000000000000000000000000000087
:100871000000000000000000000000000000000077
:100881000000000000000000000000000000000067
:100891000000000000000000000000000000000057
:1008A1000000000000000000000000000000000047
:1008B1000000000000000000000000000000000037
:1008C1000000000000000000000000000000000027
:1008D1000000000000000000000000000000000017
:1008E1000000000000000000000000000000000007
:1008F10000000000000000000000000000000000F7
:100901000000000000000000000000000000005A8C
:05091100A503824F4B1D
:10128400E4908803F0908801F0A3F0908000F0C20D
:0A12940002C204C200C201D203220C
:100DBA00908B1912039543C94053B7CF43B71075A7
:100DCA00985075D88053877F908B19E0F8A3E0F983
:100DDA00A3E0FAA3E0FB7F007E387D317C0012029B
:100DEA00F0C3E49FFF74049EFEE49DFDE49CFC9026
:100DFA008B19120395908B19E0FCA3E0FDA3E0FE8A
:100E0A00A3E0FF78081203828FBA908B19A3A3A3D9
:080E1A00E0F5AAD2ACD2AF2230
:100F7800908B19120395759680759780D2BBD2BA5B
:100F8800908B19E0F8A3E0F9A3E0FAA3E0FB7F0057
:100F98007EC07D897C011202F0908B191203959016
:100FA8008B19E0FCA3E0FDA3E0FEA3E0FF780812A4
:100FB80003828FD9908B19A3A3A3E0F5E743B70168
:010FC8002206
:100FC900908B1912039575A78075AB80D2BDD2BCE1
:100FD900908B19E0F8A3E0F9A3E0FAA3E0FB7F0006
:100FE9007EC07D897C011202F0908B1912039590C5
:100FF9008B19E0FCA3E0FDA3E0FEA3E0FF78081253
:1010090003828FAE908B19A3A3A3E0F5AF43B70278
:0110190022B4
:1011CA00908803E0B4012F908000E0702990880392
:1011DA00F07B01908B1C04F0A37488F0A37401F0D7
:1011EA00A37402F0D205C2067A80790112057FE45F
:0711FA00908801F0A3F02230
:0B057F00908B19EBF0A3EAF0A3E9F069
:10058A00E4908B20F0A3F0D2072007030206E49040
:10059A008B19E0FBA3E0FAA3E0F9908B20E0FEA31D
:1005AA00E0FFF5828E83120212645A60030206ADDE
:1005BA008F828E83A312021264A560030206AD9095
:1005CA008B21E02403FF908B20E034008F82F58397
:1005DA0012021264827020A2059204A2069201906D
:1005EA008B1FE0FF908B20E0FCA3E0FDE92DF9EAE8
:1005FA003CFA120AF7806B908B19E0FBA3E0FAA38E
:10060A00E0F9908B21E02403FF908B20E034008FE7
:0A061A0082F5831202126483707BE4
:1006240078227C8B7D017BFF7A087911FE7FFF1293
:1006340001D3A2069201908B1FE0FF908B19E0FB7F
:10064400A3E0FAA3E0F9908B20E0FCA3E0FDE92D00
:10065400F9EA3CFA908C25EBF0A3EAF0A3E9F07BED
:10066400017A8B7922120916908B19E0FBA3E0FA28
:10067400A3E0F9908B20E0FEA3E0FFF5828E83A334
:10068400A3120212FD7C00EF2DFFEC3ECF2402CF1B
:090694003400908B20F0A3EFF07C
:10069D00800E908B21E004F07006908B20E004F02A
:1006AD00908B1CE0FBA3E0FAA3E0F912028924FC75
:1006BD00FFE5F034FFFEC3908B21E09F908B20E08F
:1006CD009E500FA3E004F07006908B20E004F00222
:0706DD000593C2070205931B
:0106E40022F3
:0E0AF700908C21EFF0A3EBF0A3EAF0A3E9F05E
:100B0500E4A3F0300103020BD5908C22E0FBA3E0B7
:100B1500FAA3E0F990000412021270219000051268
:100B25000212B406187DA57C5A7F067E00120F2698
:100B35007D007C807F077E00120F268052908C22DC
:100B4500E0FBA3E0FAA3E0F9900004120212FE9084
:100B550000051202127C002400FFEC3EFEC006E9EF
:100B65002406F9E43AFAC002C001908C22A3E0FA07
:100B7500A3E0F990000212021224FDFEEC34FF906E
:100B85008C31F0A3CEF0D001D002D0061203A130F3
:020B9500043E1C
:100B970078267C8C7D017BFF7A0979107E007F06A1
:100BA7001201D3E4908C25F0908C25E0FEC39406C7
:100BB700501C908C21E0FF74262EF582E4348CF5CE
:0E0BC70083E0FD121331908C25E004F080DAFB
:010BD50022FD
:0E091600908C21EFF0A3EBF0A3EAF0A3E9F040
:10092400E4908C28F0300103020A12F0908C25E048
:10093400FBA3E0FAA3E0F9A3E0FFF58275830012BC
:100944000212FE908C22E0FBA3E0FAA3E0F98F826E
:10095400758300EE120251908C28E004F0E0B40795
:10096400CB908C22E0FBA3E0FAA3E0F99000041200
:100974000212FE9000051202127C002400FFEC3EDD
:10098400FEE92407F9E43AFAC002C001908C22A3DC
:10099400E0FAA3E0F9900006120212FD908C2EEC0E
:1009A400F0A3EDF0D001D002120A13908C22E0FBE8
:1009B400A3E0FAA3E0F990000612021225E0240451
:1009C400900002120251E4908C28F0908C22E0FBFB
:1009D400A3E0FAA3E0F99000021202122403FFE458
:1009E40033FE908C28E0C39FEE6480F874809850A6
:1009F4001D908C21E0FF908C28E0F5827583001215
:0E0A04000212FD121331908C28E004F080BD28
:010A120022C1
:10133100D203EFB402092002FDD202AF058F992238
:0700030043B71043BC80224B
:10129E00E4908804F0908885F0908905F0F0A3F032
:0712AE00A3F0A3F0A3F0225E
:1012B500E490890BF090898CF0908A0CF0F0A3F003
:0712C500A3F0A3F0A3F02247
:1012CC00E4908A12F0908A93F0908B13F0F0A3F0D4
:0712DC00A3F0A3F0A3F02230
:03002300020BD6F7
:100BD600C0E0C083C082C0D075D000C006C0073058
:100BE600992CC299C202200325908905E0601AA3B8
:100BF600E0FF04F074052FF582E43488F583E0F510
:100C060099908905E014F08005908906E4F0309803
:100C160069C298908801E0FEA3E0FF2401F5827482
:100C2600803EF583E599F09088037401F0C3EF9454
:100C3600FFEE9407500E908802E004F0700690884C
:100C460001E004F09080007405F0908804E07021C3
:100C5600908909E0D394804002E4F0908909E02469
:100C660085F582E43488F583E599F0908909E004F6
:100C7600F0908907E4F0A37405F0D007D006D0D031
:070C8600D082D083D0E032E0
:030053000210FC9C
:1010FC00C0E0C083C082C0D075D000C007E5963078
:10110C00E0285396FE908A0CE0601AA3E0FF04F0EE
:10111C00740C2FF582E43489F583E0F59E908A0CEB
:10112C00E014F08005908A0DE4F0D007D0D0D08286
:05113C00D083D0E03279
:03005B0002106A26
:10106A00C0E0C083C082C0D0E59730E0335397FE1A
:10107A0090890BE07021908A10E0D394804002E4BA
:10108A00F0908A10E0248CF582E43489F583E59F98
:10109A00F0908A10E004F0908A0EE4F0A37405F050
:0910AA00D0D0D082D083D0E03216
:0300630002114146
:10114100C0E0C083C082C0D075D000C007E5A73021
:10115100E02853A7FE908B13E0601AA3E0FF04F090
:1011610074132FF582E4348AF583E0F5AC908B1388
:10117100E014F08005908B14E4F0D007D0D0D08239
:05118100D083D0E03234
:03006B000210B3CD
:1010B300C0E0C083C082C0D0E5AB30E03353ABFEA9
:1010C300908A12E07021908B17E0D394804002E461
:1010D300F0908B17E02493F582E4348AF583E5AD31
:1010E300F0908B17E004F0908B15E4F0A37405F0F7
:0910F300D0D0D082D083D0E032CD
:03001B00020C8D47
:100C8D00C0E0C083C082C0D0758DBC758BCD9089FE
:100C9D0007E07002A3E06024908908E024FFF09043
:100CAD008907E034FFF0E07002A3E0700F9089092E
:100CBD00E0D3940040069088047401F0908A0EE011
:100CCD007002A3E06024908A0FE024FFF0908A0E5A
:100CDD00E034FFF0E07002A3E0700F908A10E0D3D3
:100CED009400400690890B7401F0908B15E0700212
:100CFD00A3E06024908B16E024FFF0908B15E03478
:100D0D00FFF0E07002A3E0700F908B17E0D394001A
:100D1D004006908A127401F0D0D0D082D083D0E0FA
:010D2D003293
:0400140002100000D6
:10125B00C2AFC2D3C2D4E4F58E75C870F593759442
:10126B0001759502F5C9F5F875F901F5A8F5B8F50D
:09127B009AF5A9F5B953C9FD2249
:1012E30075C870E4F5CDF5CC75CBBC75CACD43A8F4
:0612F30020D2C8D2AF2298
:06000E0012125B0212E376
:10120100E4F50CF50DC3E50D9FE50C9E501FE4F5CB
:101211000EF50F050FE50F7002050EB444F5E50E4E
:0D122100B448F0050DE50D70DC050C80D81B
:01122E00229D
:10122F00E4F508F509C3E5099FE5089E501DE4F5AF
:10123F000AF50B050BE50B7002050A6405450A70EC
:0B124F00F20509E50970DE050880DAF1
:01125A002271
:04118600AD07AC06FF
:10118A00E4FBFAF5F1ECC313FEEEF5F2ECC313ED52
:10119A0013F5F375F8AF30FCFDD2FE20FEFDED30FD
:1011AA00E008AFFCEFFEADFD8006AFFAEFFEADFB47
:0F11BA007C00E42DFBEC3EFAE4F5F8AE02AF0347
:0111C9002203
:100F2600AB07AA06E4F5F1EAC313FEEEF5F2EAC34F
:100F360013EB13F5F375F8AF30FCFDD2FE20FEFD82
:100F4600E4F5F8EAC313FEEEF5F2EAC313EB13F584
:100F5600F375F88F30FCFDEB30E007ECF5FC8DFD0A
:100F66008007ECF5FAAF058FFBD2FE20FEFDE4F517
:020F7600F8225F
:0F0A1300908C2BEBF0A3EAF0A3E9F0AD07AC0653
:100A2200EF5401FBECC313FCED13FDE4F5F1ECF51F
:100A3200F2AF058FF375F40175F8AF30FCFDD3907A
:100A42008C2FE09400908C2EE094005003020AF365
:100A5200D2FE20FEFDEB7049D3908C2FE0940090E3
:100A62008C2EE09400403A908C2BE0FBA3E475F0CE
:100A720001120273A9F0FAE5FA12023F908C2BE000
:100A8200FBA3E475F001120273A9F0FAE5FB12026E
:100A92003F7B01908C2FE024FFF0908C2EE034FFFE
:100AA200F0EBB40199D3908C2FE09400908C2EE05F
:100AB2009400408A908C2BE0FBA3E475F0011202B3
:100AC20073A9F0FAE5FC12023F908C2BE0FBA3E441
:100AD20075F001120273A9F0FAE5FD12023FE4FB80
:100AE200908C2FE024FFF0908C2EE034FFF0020A6D
:040AF20040E4F5F8EF
:010AF60022DD
:0F06E500908C35EBF0A3EAF0A3E9F0AD07AC067B
:1006F400EF5401FBECC313FCED13FDE4F5F1ECF551
:10070400F2AF058FF375F40175F88F30FCFDEB60E3
:100714004CD3908C39E09400908C38E09400403DA8
:1007240075F883908C35E0FBA3E475F00112027335
:10073400A9F0FA1201F9F5FC908C35E0FBA3E475FD
:10074400F001120273A9F0FA1201F9F5FDD2FE903C
:100754008C39E024FFF0908C38E034FFF075F88F8A
:10076400908C38E0FEA3E0FFC39402EE9400406650
:10077400908C35E0FBA3E475F001120273A9F0FA42
:100784001201F9F5FA908C35E0FBA3E475F001123F
:100794000273A9F0FA1201F9F5FB908C35E0FBA382
:1007A400E475F001120273A9F0FA1201F9F5FC9054
:1007B4008C35E0FBA3E475F001120273A9F0FA1280
:1007C40001F9F5FDD2FE908C39E024FEF0908C38CE
:1007D400E034FFF0808AEF4E602F75F88C908C35F2
:1007E400E0FBA3E475F001120273A9F0FA1201F917
:1007F400F5FA908C35E0FBA3E475F001120273A9BD
:0C080400F0FA1201F9F5FBD2FEE4F5F861
:0108100022C5
:0F03A100908C2EEBF0A3EAF0A3E9F0AD07AC06C9
:1003B000EF5401FBECC313FCED13FDE4F5F1ECF598
:1003C000F2AF058FF375F40175F88F30FCFDEB602B
:1003D0007B908C31E0FEA3E0FFD39400EE940040CC
:1003E0006BEF64014E702575F882908C2EE0FBA3B4
:1003F000E475F001120273A9F0FA1201F9F5FCD2CA
:10040000FE20FEFD908C32E024FF803875F883904A
:100410008C2EE0FBA3E475F001120273A9F0FA122E
:1004200001F9F5FC908C2EE0FBA3E475F0011202BB
:1004300073A9F0FA1201F9F5FDD2FE20FEFD908CB1
:1004400032E024FEF0908C31E034FFF075F88F90AC
:100450008C31E0FEA3E0FFC39404EE940040699069
:100460008C2EE0FBA3E475F001120273A9F0FA12DE
:1004700001F9F5FA908C2EE0FBA3E475F00112026D
:1004800073A9F0FA1201F9F5FB908C2EE0FBA3E4BE
:1004900075F001120273A9F0FA1201F9F5FC908CC3
:1004A0002EE0FBA3E475F001120273A9F0FA120129
:1004B000F9F5FDD2FE20FEFD908C32E024FCF09098
:1004C0008C31E034FFF08087EF64034E704975F89B
:1004D0008E908C2EE0FBA3E475F001120273A9F05C
:1004E000FA1201F9F5FA908C2EE0FBA3E475F00105
:1004F000120273A9F0FA1201F9F5FB908C2EE0FBC1
:10050000A3E475F001120273A9F0FA1201F9F5FCE7
:10051000D2FE30FE6680FB908C31E0FEA3E0FF64EB
:10052000024E703475F88C908C2EE0FBA3E475F0CD
:1005300001120273A9F0FA1201F9F5FA908C2EE07B
:10054000FBA3E475F001120273A9F0FA1201F9F5A8
:10055000FBD2FE30FE2580FBEF64014E701D75F866
:1005600088908C2EE0FBA3E475F001120273A9F0D1
:0E057000FA1201F9F5FAD2FE20FEFDE4F5F8CC
:01057E00225A
:03002B0002131F9E
:10131F00C0E0C2C6E51115117002151043C901D006
:02132F00E032AA
:100E7A00E4FFFE908804E06401704AF07A8879857C
:100E8A0090890912006EAD07AC06908909E0F92431
:100E9A0083F582E43488F583E0FE748429F582E4DC
:100EAA003488F583E0FBEBFFE4908909F0EDB507A0
:100EBA0014ECB50610908885E0B40109A3E024FA81
:050ECA0070031200D8C6
:010ECF002200
:100ED000E4FFFE90890BE06401704AF07A89798C16
:100EE000908A1012006EAD07AC06908A10E0F924CB
:100EF0008AF582E43489F583E0FE748B29F582E477
:100F00003489F583E0FBEBFFE4908A10F0EDB50740
:100F100014ECB5061090898CE0B40109A3E024FA22
:050F200070031200D86F
:010F250022A9
:100E2200E4FFFE908A12E06401704CF07B017A8A42
:100E32007993908B17120070AD07AC06908B17E078
:100E4200F92491F582E4348AF583E0FE749229F55F
:100E520082E4348AF583E0FBEBFFE4908B17F0ED3C
:100E6200B50714ECB50610908A93E0B40109A3E02B
:070E720024FA70031200D8FE
:010E79002256
:1000D800E4908A13F0A304F0A304F0A304F0A304AB
:0F00E800F0A304F0C203908B1304F043A701228E
:06006E007B01E024FEFD11
:05007400908B19EDF076
:1000790074FFA3F0A3F01201F9FF908B1AE0F0A32B
:10008900E06FF0E4FD908B1AE0FEA3E0FF30E01989
:10009900EEC313FEEF13FFEE64A0FEEF6401FF90C1
:1000A9008B1AEEF0A3EFF0800B908B1AE0C313F0DC
:1000B900A3E013F00DEDB408CC740129F9E43AFA80
:0E00C900908B19E014F070AEA3E0FEA3E0FFF0
:0100D7002206
:03000000020D2EC0
:0C0D2E00787FE4F6D8FD758120020D7579
:100D3A0002101AE493A3F8E493A34003F68001F2A5
:100D4A0008DFF48029E493A3F85407240CC8C333BA
:100D5A00C4540F4420C8834004F456800146F6DF89
:100D6A00E4800B0102040810204080900014E47E05
:100D7A00019360BCA3FF543F30E509541FFEE4937E
:100D8A00A360010ECF54C025E060A840B8E493A345
:100D9A00FAE493A3F8E493A3C8C582C8CAC583CA70
:100DAA00F0A3C8C582C8CAC583CADFE9DEE780BE28
:0100180000E7
:10010300E709F608DFFA8046E709F208DFFA803EDE
:1001130088828C83E709F0A3DFFA8032E309F608CB
:10012300DFFA8078E309F208DFFA807088828C8333
:10013300E309F0A3DFFA806489828A83E0A3F608E7
:10014300DFFA805889828A83E0A3F208DFFA804CC1
:1001530080D280FA80C680D4806980F28033801098
:1001630080A680EA809A80A880DA80E280CA803301
:1001730089828A83ECFAE493A3C8C582C8CCC58379
:10018300CCF0A3C8C582C8CCC583CCDFE9DEE78049
:100193000D89828A83E493A3F608DFF9ECFAA9F0C8
:1001A300EDFB2289828A83ECFAE0A3C8C582C8CC1E
:1001B300C583CCF0A3C8C582C8CCC583CCDFEADE37
:1001C300E880DB89828A83E493A3F208DFF980CC99
:1001D30088F0EF60010E4E60C388F0ED2402B40492
:1001E3000050B9F582EB2402B4040050AF23234539
:0601F3008223900153730A
:1001F900BB010689828A83E0225002E722BBFE0204
:09020900E32289828A83E4932236
:10021200BB010CE58229F582E5833AF583E02250A1
:1002220006E92582F8E622BBFE06E92582F8E222EB
:0D023200E58229F582E5833AF583E4932205
:10023F00BB010689828A83F0225002F722BBFE019E
:02024F00F32298
:10025100F8BB010DE58229F582E5833AF583E8F0E3
:10026100225006E92582C8F622BBFE05E92582C88F
:02027100F22277
:10027300A3F8E0C5F025F0F0E5821582700215833E
:06028300E0C838F0E8229B
:10028900BB010A89828A83E0F5F0A3E02250068740
:10029900F009E71922BBFE07E3F5F009E319228902
:0B02A900828A83E493F5F07401932235
:1002B40075F008758200EF2FFFEE33FECD33CDCC01
:1002C40033CCC58233C5829BED9AEC99E582984084
:1002D4000CF582EE9BFEED9AFDEC99FC0FD5F0D661
:1002E400E4CEFBE4CDFAE4CCF9A88222B800C1B98B
:1002F4000059BA002DEC8BF084CFCECDFCE5F0CBC9
:10030400F97818EF2FFFEE33FEED33FDEC33FCEB01
:1003140033FB10D703994004EB99FB0FD8E5E4F9BC
:10032400FA227818EF2FFFEE33FEED33FDEC33FCA9
:10033400C933C910D7059BE99A4007EC9BFCE99A9D
:10034400F90FD8E0E4C9FAE4CCFB2275F010EF2FE2
:10035400FFEE33FEED33FDCC33CCC833C810D707E2
:100364009BEC9AE899400AED9BFDEC9AFCE899F81D
:0E0374000FD5F0DAE4CDFBE4CCFAE4C8F922B0
:10038200E8600FECC313FCED13FDEE13FEEF13FF59
:03039200D8F1227D
:0C039500ECF0A3EDF0A3EEF0A3EFF022DB
:00000001FF
