:0A00000002002E1204711204F22215
:0D000B0002042C02080000428000000000EA
:03001B000203E1FC
:03002300020305D0
:10002B0002049A787FE4F6D8FD7581090200750207
:10003B0000BAE493A3F8E493A34003F68001F2081B
:10004B00DFF48029E493A3F85407240CC8C333C40A
:10005B00540F4420C8834004F456800146F6DFE475
:10006B00800B010204081020408090000EE47E01FA
:10007B009360BCA3FF543F30E509541FFEE493A3E8
:10008B0060010ECF54C025E060A840B8E493A3FAFA
:10009B00E493A3F8E493A3C8C582C8CAC583CAF086
:1000AB00A3C8C582C8CAC583CADFE9DEE780BE1212
:1000BB0000037F007EC27D017C0012037E1204DBF5
:1000CB00120508120518E4908109F043BC8075F9FC
:1000DB0001C2971200E480FB22908002E0B4010978
:0A00EB00E4F0908107F01204BF2238
:1000F800FFFF4457494E5435020075020257EC5D24
:10010800046005E85904700302024D1202185804ED
:1001180060F6EC4860F2EC7004FDFEFF22C860DB7C
:100128002481C85009C398600250060202549850AE
:10013800CAF582E9294B4A7005AB8202024375F081
:10014800007C1A7880C3EF9BEE9AED99400DC3EFBF
:100158009BFFEE9AFEED99FDE842F0DC23ACF0D06F
:10016800E0FFD0E0FED0E0FDAB8220E7101BEB60A3
:10017800BAEC2CFCEF33FFEE33FEED33FD02022F19
:10018800E803F830E705C0F075F000EF2FFFEE3315
:10019800FEED33FD40B830E7C280AA75F020800E2E
:1001A80075F010800575F0087D007E007F003392A1
:1001B800D530D5031202A3EC334010EF33FFEE33F2
:1001C800FEED33FDEC33FCD5F0ED22E5F0247EA204
:1001D800D513CC92E7CDCEFF22EDD2E7CD33EC3369
:1001E80092D524814006E4FFFEFDFC22FCE4CFCE3C
:1001F800CDCC24E0501174FF80EDC3CC13CCCD13CB
:10020800CDCE13CECF13CF0470F030D5DE0202A3CB
:10021800E9D2E7C933E833F892D5EDD2E7CD33EC2C
:1002280033FC5002B2D522EC30E7100FBF000C0EA1
:10023800BE00080DBD00040BEB6014A2D5EB13FC47
:10024800ED92E7FD2274FFFCFDFEFF22E480F8A298
:10025800D574FF13FC7D80E480EFBB010689828A98
:1002680083E0225002E722BBFE02E32289828A83CE
:10027800E49322BB010689828A83F0225002F72286
:10028800BBFE01F322C5F0F8A3E028F0C5F0F8E5BD
:1002980082158270021583E038F022C3E49FFFE4E0
:1002A8009EFEE49DFDE49CFC22E8600FECC313FC79
:1002B800ED13FDEE13FEEF13FFD8F122E0FCA3E0EF
:1002C800FDA3E0FEA3E0FF22ECF0A3EDF0A3EEF027
:1002D800A3EFF022E0FBA3E0FAA3E0F922F8E0FBA9
:1002E800A3A3E0F925F0F0E582158270021583E0FA
:1002F800FA38F022EBF0A3EAF0A3E9F022C0E0C05C
:1003080083C082C0D075D000C007309927C29990A9
:100318008103E0601AA3E0FF04F074032FF582E480
:100328003480F583E0F599908103E014F08005901E
:100338008104E4F0309834C298B297908002E0705B
:1003480021908107E0D394804002E4F0908107E097
:100358002483F582E43480F583E599F0908107E001
:1003680004F0908105E4F0A37405F0D007D0D0D054
:1003780082D083D0E03290810A1202D043C9405320
:10038800B7CF43B71075985075D88053877F908141
:100398000A1202C4E41201A3A804A905AA06AB071D
:1003A8007F007EE07D447C4A1201061201E1C3E42D
:1003B8009FFF74049EFEE4FCFD90810A1202D09017
:1003C800810A1202C478081202B18FBA90810A1207
:1003D80002C48FAAD2ACD2AF22C0E0C0F0C083C0A2
:1003E80082C0D075D000C000C006908105E0FEA391
:1003F800E04E602190810574FFF5F012028D908126
:1004080005E0FEA3E04E700DA3E0D39400400690F3
:1004180080027401F0D006D000D0D0D082D083D032
:10042800F0D0E032C0E0C0F0C083C082C0D075D048
:1004380000C000C006908000E475F00112028D90A3
:100448008000E0FEA3E0B4E811EEB4030D9081094A
:100458007401F0908000E4F0A3F0D006D000D0D072
:10046800D082D083D0F0D0E032C2AFC2D3C2D4E4BD
:10047800F58E75C870F593759401759502F5C9F5F3
:10048800F875F901F5A8F5B8F59AF5A9F5B953C9BC
:10049800FD22C0E0C0D075D000C000C006C2C6783A
:1004A80008E6FE08E64E6006E61618700116D00645
:1004B800D000D0D0D0E032E4908003F0A304F0A3C1
:1004C80004F0A304F0A304F0A304F090810304F063
:1004D800D29922E4908002F0908083F0908103F01A
:1004E800F0A3F0A3F0A3F0A3F02275C870E4F5CD53
:1004F800F5CC75CBBC75CACD43A820D2C8D2AF22E3
:100508005389FC758CBC758ACDD2A9D2AFD28C2206
:100518005389CF758DBC758BCDD2ABD2AFD28E221D
:00000001FF
