:1010900012000E1200037F007EC27D017C00120D43
:1010A0006612111D1211731211837FE87E03121054
:0B10B00036D297120FFF120E8580F859
:0B00F800FFFF4457494E54350200A59D
:101173005389FC758CBC758ACDD2A9D2AFD28C228F
:101183005389CF758DBC758BCDD2ABD2AFD28E22A6
:03000B000210E4FC
:1010E400C0E0C083C082C0D0908000E0D3940040B0
:0D10F40003E014F0D0D0D082D083D0E032E1
:1008110000000000000000000000000000000000D7
:1008210000000000000000000000000000000000C7
:1008310000000000000000000000000000000000B7
:1008410000000000000000000000000000000000A7
:100851000000000000000000000000000000000097
:100861000000000000000000000000000000000087
:100871000000000000000000000000000000000077
:100881000000000000000000000000000000000067
:100891000000000000000000000000000000000057
:1008A1000000000000000000000000000000000047
:1008B1000000000000000000000000000000000037
:1008C1000000000000000000000000000000000027
:1008D1000000000000000000000000000000000017
:1008E1000000000000000000000000000000000007
:1008F10000000000000000000000000000000000F7
:100901000000000000000000000000000000005A8C
:05091100A503824F4B1D
:1011010041880300428801000041800000C102C102
:0711110004C100C101C1038C
:100D6600908A1212039543C94053B7CF43B7107503
:100D7600985075D88053877F908A12E0F8A3E0F9DF
:100D8600A3E0FAA3E0FB7F007E387D317C001202EF
:100D9600F0C3E49FFF74049EFEE49DFDE49CFC907A
:100DA6008A12120395908A12E0FCA3E0FDA3E0FEEE
:100DB600A3E0FF78081203828FBA908A12A3A3A336
:080DC600E0F5AAD2ACD2AF2285
:100DCE00908B33120395759680759780D2BBD2BAED
:100DDE00908B33E0F8A3E0F9A3E0FAA3E0FB7F00E9
:100DEE007E387D317C001202F0C3E49FFF74049EB6
:100DFE00FEE49DFDE49CFC908B33120395908B33A7
:100E0E00E0FCA3E0FDA3E0FEA3E0FF78081203825E
:0F0E1E008FD9908B33A3A3A3E0F5E743B701224D
:100FFF00908803E0B4012F908000E070299088035F
:10100F00F07B01908A1504F0A37488F0A37401F0AB
:10101F00A37402F0D205C2067A80790112057FE42B
:07102F00908801F0A3F022FC
:0B057F00908A12EBF0A3EAF0A3E9F071
:10058A00E4908A19F0A3F0D2072007030206E49048
:10059A008A12E0FBA3E0FAA3E0F9908A19E0FEA32D
:1005AA00E0FFF5828E83120212645A60030206ADDE
:1005BA008F828E83A312021264A560030206AD9095
:1005CA008A1AE02403FF908A19E034008F82F583A7
:1005DA0012021264827020A2059204A2069201906D
:1005EA008A18E0FF908A19E0FCA3E0FDE92DF9EAF8
:1005FA003CFA120AF7806B908A12E0FBA3E0FAA396
:10060A00E0F9908A1AE02403FF908A19E034008FF7
:0A061A0082F5831202126483707BE4
:10062400781B7C8A7D017BFF7A087911FE7FFF129B
:1006340001D3A2069201908A18E0FF908A12E0FB8F
:10064400A3E0FAA3E0F9908A19E0FCA3E0FDE92D08
:10065400F9EA3CFA908B1EEBF0A3EAF0A3E9F07BF5
:10066400017A8A791B120916908A12E0FBA3E0FA38
:10067400A3E0F9908A19E0FEA3E0FFF5828E83A33C
:10068400A3120212FD7C00EF2DFFEC3ECF2402CF1B
:090694003400908A19F0A3EFF084
:10069D00800E908A1AE004F07006908A19E004F03A
:1006AD00908A15E0FBA3E0FAA3E0F912028924FC7D
:1006BD00FFE5F034FFFEC3908A1AE09F908A19E09F
:1006CD009E500FA3E004F07006908A19E004F0022A
:0706DD000593C2070205931B
:0106E40022F3
:0E0AF700908B1AEFF0A3EBF0A3EAF0A3E9F066
:100B0500E4A3F0300103020BD5908B1BE0FBA3E0BF
:100B1500FAA3E0F990000412021270219000051268
:100B25000212B406187DA57C5A7F067E00120EDBE4
:100B35007D007C807F077E00120EDB8052908B1B30
:100B4500E0FBA3E0FAA3E0F9900004120212FE9084
:100B550000051202127C002400FFEC3EFEC006E9EF
:100B65002406F9E43AFAC002C001908B1BA3E0FA0F
:100B7500A3E0F990000212021224FDFEEC34FF906E
:100B85008B2AF0A3CEF0D001D002D0061203A130FB
:020B9500043E1C
:100B9700781F7C8B7D017BFF7A0979107E007F06A9
:100BA7001201D3E4908B1EF0908B1EE0FEC39406D7
:100BB700501C908B1AE0FF741F2EF582E4348BF5DE
:0E0BC70083E0FD121193908B1EE004F080DAA3
:010BD50022FD
:0E091600908B1AEFF0A3EBF0A3EAF0A3E9F048
:10092400E4908B21F0300103020A12F0908B1EE058
:10093400FBA3E0FAA3E0F9A3E0FFF58275830012BC
:100944000212FE908B1BE0FBA3E0FAA3E0F98F8276
:10095400758300EE120251908B21E004F0E0B4079D
:10096400CB908B1BE0FBA3E0FAA3E0F99000041208
:100974000212FE9000051202127C002400FFEC3EDD
:10098400FEE92407F9E43AFAC002C001908B1BA3E4
:10099400E0FAA3E0F9900006120212FD908B27EC16
:1009A400F0A3EDF0D001D002120A13908B1BE0FBF0
:1009B400A3E0FAA3E0F990000612021225E0240451
:1009C400900002120251E4908B21F0908B1BE0FB0B
:1009D400A3E0FAA3E0F99000021202122403FFE458
:1009E40033FE908B21E0C39FEE6480F874809850AE
:1009F4001D908B1AE0FF908B21E0F5827583001225
:0E0A04000212FD121193908B21E004F080BDD0
:010A120022C1
:10119300D203EFB402092002FDD202AF058F9922D8
:0700030043B71043BC80224B
:10111D00E4908804F0908885F0908905F0F0A3F0B4
:07112D00A3F0A3F0A3F022E0
:10113400E490890BF090898CF0908A0CF0F0A3F085
:07114400A3F0A3F0A3F022C9
:03002300020BD6F7
:100BD600C0E0C083C082C0D075D000C006C0073058
:100BE600992CC299C202200325908905E0601AA3B8
:100BF600E0FF04F074052FF582E43488F583E0F510
:100C060099908905E014F08005908906E4F0309803
:100C16006BC298B297908801E0FEA3E0FF2401F52D
:100C26008274803EF583E599F09088037401F0C3E1
:100C3600EF94FFEE9407500E908802E004F07006E1
:100C4600908801E004F09080007405F0908804E03C
:100C56007021908909E0D394804002E4F0908909DC
:100C6600E02485F582E43488F583E599F0908909D6
:100C7600E004F0908907E4F0A37405F0D007D006ED
:090C8600D0D0D082D083D0E0323E
:03005300020F7623
:100F7600C0E0C083C082C0D075D000C007E59630FF
:100F8600E0285396FE908A0CE0601AA3E0FF04F076
:100F9600740C2FF582E43489F583E0F59E908A0C73
:100FA600E014F08005908A0DE4F0D007D0D0D0820E
:050FB600D083D0E03201
:03005B00020F2D64
:100F2D00C0E0C083C082C0D0E59730E0335397FE58
:100F3D0090890BE07021908A10E0D394804002E4F8
:100F4D00F0908A10E0248CF582E43489F583E59FD6
:100F5D00F0908A10E004F0908A0EE4F0A37405F08E
:090F6D00D0D0D082D083D0E03254
:03001B00020C8F45
:100C8F00C0E0C083C082C0D0908907E07002A3E0AB
:100C9F006024908908E024FFF0908907E034FFF08A
:100CAF00E07002A3E0700F908909E0D39400400632
:100CBF009088047401F0908A0EE07002A3E0602423
:100CCF00908A0FE024FFF0908A0EE034FFF0E0707E
:100CDF0002A3E0700F908A10E0D394004006908931
:0D0CEF000B7401F0D0D0D082D083D0E03261
:0411180002100000C1
:1010BB00C2AFC2D3C2D4E4F58E75C870F5937594E4
:1010CB0001759502F5C9F5F875F901F5A8F5B8F5AF
:0910DB009AF5A9F5B953C9FD22EB
:10114B0075C870E4F5CDF5CC75CBBC75CACD43A88D
:06115B0020D2C8D2AF2231
:06000E001210BB02114BB1
:10103600E4F50CF50DC3E50D9FE50C9E501FE4F598
:101046000EF50F050FE50F7002050EB498F5E50EC7
:0D105600B421F0050DE50D70DC050C80D80F
:01106300226A
:10106400E4F508F509C3E5099FE5089E501DE4F57C
:101074000AF50B050BE50B7002050A6405450A70B9
:0B108400F20509E50970DE050880DABE
:01108F00223E
:040FBB00AD07AC06CC
:100FBF00E4FBFAF5F1ECC313FEEEF5F2ECC313ED1F
:100FCF0013F5F375F8AF30FCFDD2FE20FEFDED30CA
:100FDF00E008AFFCEFFEADFD8006AFFAEFFEADFB14
:0F0FEF007C00E42DFBEC3EFAE4F5F8AE02AF0314
:010FFE0022D0
:100EDB00AB07AA06E4F5F1EAC313FEEEF5F2EAC39B
:100EEB0013EB13F5F375F8AF30FCFDD2FE20FEFDCE
:100EFB00E4F5F8EAC313FEEEF5F2EAC313EB13F5D0
:100F0B00F375F88F30FCFDEB30E007ECF5FC8DFD55
:100F1B008007ECF5FAAF058FFBD2FE20FEFDE4F562
:020F2B00F822AA
:0F0A1300908B24EBF0A3EAF0A3E9F0AD07AC065B
:100A2200EF5401FBECC313FCED13FDE4F5F1ECF51F
:100A3200F2AF058FF375F40175F8AF30FCFDD3907A
:100A42008B28E09400908B27E094005003020AF375
:100A5200D2FE20FEFDEB7049D3908B28E0940090EB
:100A62008B27E09400403A908B24E0FBA3E475F0DE
:100A720001120273A9F0FAE5FA12023F908B24E008
:100A8200FBA3E475F001120273A9F0FAE5FB12026E
:100A92003F7B01908B28E024FFF0908B27E034FF0E
:100AA200F0EBB40199D3908B28E09400908B27E06F
:100AB2009400408A908B24E0FBA3E475F0011202BB
:100AC20073A9F0FAE5FC12023F908B24E0FBA3E449
:100AD20075F001120273A9F0FAE5FD12023FE4FB80
:100AE200908B28E024FFF0908B27E034FFF0020A7D
:040AF20040E4F5F8EF
:010AF60022DD
:0F06E500908B2EEBF0A3EAF0A3E9F0AD07AC0683
:1006F400EF5401FBECC313FCED13FDE4F5F1ECF551
:10070400F2AF058FF375F40175F88F30FCFDEB60E3
:100714004CD3908B32E09400908B31E09400403DB8
:1007240075F883908B2EE0FBA3E475F0011202733D
:10073400A9F0FA1201F9F5FC908B2EE0FBA3E47505
:10074400F001120273A9F0FA1201F9F5FDD2FE903C
:100754008B32E024FFF0908B31E034FFF075F88F9A
:10076400908B31E0FEA3E0FFC39402EE9400406658
:10077400908B2EE0FBA3E475F001120273A9F0FA4A
:100784001201F9F5FA908B2EE0FBA3E475F0011247
:100794000273A9F0FA1201F9F5FB908B2EE0FBA38A
:1007A400E475F001120273A9F0FA1201F9F5FC9054
:1007B4008B2EE0FBA3E475F001120273A9F0FA1288
:1007C40001F9F5FDD2FE908B32E024FEF0908B31DE
:1007D400E034FFF0808AEF4E602F75F88C908B2EFA
:1007E400E0FBA3E475F001120273A9F0FA1201F917
:1007F400F5FA908B2EE0FBA3E475F001120273A9C5
:0C080400F0FA1201F9F5FBD2FEE4F5F861
:0108100022C5
:0F03A100908B27EBF0A3EAF0A3E9F0AD07AC06D1
:1003B000EF5401FBECC313FCED13FDE4F5F1ECF598
:1003C000F2AF058FF375F40175F88F30FCFDEB602B
:1003D0007B908B2AE0FEA3E0FFD39400EE940040D4
:1003E0006BEF64014E702575F882908B27E0FBA3BC
:1003F000E475F001120273A9F0FA1201F9F5FCD2CA
:10040000FE20FEFD908B2BE024FF803875F8839052
:100410008B27E0FBA3E475F001120273A9F0FA1236
:1004200001F9F5FC908B27E0FBA3E475F0011202C3
:1004300073A9F0FA1201F9F5FDD2FE20FEFD908BB2
:100440002BE024FEF0908B2AE034FFF075F88F90BB
:100450008B2AE0FEA3E0FFC39404EE940040699071
:100460008B27E0FBA3E475F001120273A9F0FA12E6
:1004700001F9F5FA908B27E0FBA3E475F001120275
:1004800073A9F0FA1201F9F5FB908B27E0FBA3E4C6
:1004900075F001120273A9F0FA1201F9F5FC908BC4
:1004A00027E0FBA3E475F001120273A9F0FA120130
:1004B000F9F5FDD2FE20FEFD908B2BE024FCF090A0
:1004C0008B2AE034FFF08087EF64034E704975F8A3
:1004D0008E908B27E0FBA3E475F001120273A9F064
:1004E000FA1201F9F5FA908B27E0FBA3E475F0010D
:1004F000120273A9F0FA1201F9F5FB908B27E0FBC9
:10050000A3E475F001120273A9F0FA1201F9F5FCE7
:10051000D2FE30FE6680FB908B2AE0FEA3E0FF64F3
:10052000024E703475F88C908B27E0FBA3E475F0D5
:1005300001120273A9F0FA1201F9F5FA908B27E083
:10054000FBA3E475F001120273A9F0FA1201F9F5A8
:10055000FBD2FE30FE2580FBEF64014E701D75F866
:1005600088908B27E0FBA3E475F001120273A9F0D9
:0E057000FA1201F9F5FAD2FE20FEFDE4F5F8CC
:01057E00225A
:03002B000211615E
:10116100C0E0C2C6E51115117002151043C901D0C6
:02117100E0326A
:100E2D00E4FFFE90890BE06401704CF07A89798CB7
:100E3D00908A10120CFCAD07AC06908A10E0F924D4
:100E4D008AF582E43489F583E0FE748B29F582E41A
:100E5D003489F583E0FBEBFFE4908A10F0EDB507E4
:100E6D0016ECB50612B29790898CE0B40109A3E097
:070E7D0024FA700312002E9D
:010E8400224B
:100E8500E4FFFE908804E06401704AF07A88798571
:100E9500908909120CFCAD07AC06908909E0F9248C
:100EA50083F582E43488F583E0FE748429F582E4D1
:100EB5003488F583E0FBEBFFE4908909F0EDB50795
:100EC50014ECB50610908885E0B40109A3E024FA76
:050ED500700312002E65
:010EDA0022F5
:10002E0078057C887D017B017A8879857E007F0842
:0E003E001201D3C2039089057408F0D29922F2
:060CFC007B01E024FEFD77
:050D0200908A12EDF0E3
:100D070074FFA3F0A3F01201F9FF908A13E0F0A398
:100D1700E06FF0E4FD908A13E0FEA3E0FF30E019F6
:100D2700EEC313FEEF13FFEE64A0FEEF6401FF9026
:100D37008A13EEF0A3EFF0800B908A13E0C313F051
:100D4700A3E013F00DEDB408CC740129F9E43AFAE5
:0E0D5700908A12E014F070AEA3E0FEA3E0FF5D
:010D6500226B
:0300000002005E9D
:0C005E00787FE4F6D8FD7581200200A533
:10006A00021090E493A3F8E493A34003F68001F20C
:10007A0008DFF48029E493A3F85407240CC8C33397
:10008A00C4540F4420C8834004F456800146F6DF66
:10009A00E4800B0102040810204080901101E47EE4
:1000AA00019360BCA3FF543F30E509541FFEE4935B
:1000BA00A360010ECF54C025E060A840B8E493A322
:1000CA00FAE493A3F8E493A3C8C582C8CAC583CA4D
:1000DA00F0A3C8C582C8CAC583CADFE9DEE780BE05
:01111C0000D2
:10010300E709F608DFFA8046E709F208DFFA803EDE
:1001130088828C83E709F0A3DFFA8032E309F608CB
:10012300DFFA8078E309F208DFFA807088828C8333
:10013300E309F0A3DFFA806489828A83E0A3F608E7
:10014300DFFA805889828A83E0A3F208DFFA804CC1
:1001530080D280FA80C680D4806980F28033801098
:1001630080A680EA809A80A880DA80E280CA803301
:1001730089828A83ECFAE493A3C8C582C8CCC58379
:10018300CCF0A3C8C582C8CCC583CCDFE9DEE78049
:100193000D89828A83E493A3F608DFF9ECFAA9F0C8
:1001A300EDFB2289828A83ECFAE0A3C8C582C8CC1E
:1001B300C583CCF0A3C8C582C8CCC583CCDFEADE37
:1001C300E880DB89828A83E493A3F208DFF980CC99
:1001D30088F0EF60010E4E60C388F0ED2402B40492
:1001E3000050B9F582EB2402B4040050AF23234539
:0601F3008223900153730A
:1001F900BB010689828A83E0225002E722BBFE0204
:09020900E32289828A83E4932236
:10021200BB010CE58229F582E5833AF583E02250A1
:1002220006E92582F8E622BBFE06E92582F8E222EB
:0D023200E58229F582E5833AF583E4932205
:10023F00BB010689828A83F0225002F722BBFE019E
:02024F00F32298
:10025100F8BB010DE58229F582E5833AF583E8F0E3
:10026100225006E92582C8F622BBFE05E92582C88F
:02027100F22277
:10027300A3F8E0C5F025F0F0E5821582700215833E
:06028300E0C838F0E8229B
:10028900BB010A89828A83E0F5F0A3E02250068740
:10029900F009E71922BBFE07E3F5F009E319228902
:0B02A900828A83E493F5F07401932235
:1002B40075F008758200EF2FFFEE33FECD33CDCC01
:1002C40033CCC58233C5829BED9AEC99E582984084
:1002D4000CF582EE9BFEED9AFDEC99FC0FD5F0D661
:1002E400E4CEFBE4CDFAE4CCF9A88222B800C1B98B
:1002F4000059BA002DEC8BF084CFCECDFCE5F0CBC9
:10030400F97818EF2FFFEE33FEED33FDEC33FCEB01
:1003140033FB10D703994004EB99FB0FD8E5E4F9BC
:10032400FA227818EF2FFFEE33FEED33FDEC33FCA9
:10033400C933C910D7059BE99A4007EC9BFCE99A9D
:10034400F90FD8E0E4C9FAE4CCFB2275F010EF2FE2
:10035400FFEE33FEED33FDCC33CCC833C810D707E2
:100364009BEC9AE899400AED9BFDEC9AFCE899F81D
:0E0374000FD5F0DAE4CDFBE4CCFAE4C8F922B0
:10038200E8600FECC313FCED13FDEE13FEEF13FF59
:03039200D8F1227D
:0C039500ECF0A3EDF0A3EEF0A3EFF022DB
:00000001FF
