:0A00000002002E120C7E12000E22E8
:10000B00020C3B75C870E4F5CDF5CC75CBBC75CA4D
:09001B00CD43A820D2C8D2AF22C7
:10002B00020CA7787FE4F6D8FD75812102007502DA
:10003B0000BAE493A3F8E493A34003F68001F2081B
:10004B00DFF48029E493A3F85407240CC8C333C40A
:10005B00540F4420C8834004F456800146F6DFE475
:10006B00800B0102040810204080900CFBE47E0101
:10007B009360BCA3FF543F30E509541FFEE493A3E8
:10008B0060010ECF54C025E060A840B8E493A3FAFA
:10009B00E493A3F8E493A3C8C582C8CAC583CAF086
:1000AB00A3C8C582C8CAC583CADFE9DEE780BE1212
:1000BB0000037F007EC27D017C00120B8B120CEEC5
:1000CB00E4908032F0908032E0B4010E7BFF7A0D29
:1000DB007904120773E4908032F07BFF7A0D791369
:1000EB001207737FE87E03120BEE80D922FFFF44C9
:1000FB0057494E5435020075020257EC5D046005FA
:10010B00E85904700302024D120218580460F6EC11
:10011B004860F2EC7004FDFEFF22C860DB2481C84E
:10012B005009C398600250060202549850CAF582D7
:10013B00E9294B4A7005AB8202024375F0007C1A29
:10014B007880C3EF9BEE9AED99400DC3EF9BFFEECA
:10015B009AFEED99FDE842F0DC23ACF0D0E0FFD045
:10016B00E0FED0E0FDAB8220E7101BEB60BAEC2C7D
:10017B00FCEF33FFEE33FEED33FD02022FE803F805
:10018B0030E705C0F075F000EF2FFFEE33FEED33D7
:10019B00FD40B830E7C280AA75F020800E75F010D4
:1001AB00800575F0087D007E007F003392D530D539
:1001BB0003120680EC334010EF33FFEE33FEED33CA
:1001CB00FDEC33FCD5F0ED22E5F0247EA2D513CC6B
:1001DB0092E7CDCEFF22EDD2E7CD33EC3392D5248F
:1001EB00814006E4FFFEFDFC22FCE4CFCECDCC2407
:1001FB00E0501174FF80EDC3CC13CCCD13CDCE13D7
:10020B00CECF13CF0470F030D5DE020680E9D2E7F3
:10021B00C933E833F892D5EDD2E7CD33EC33FC504C
:10022B0002B2D522EC30E7100FBF000C0EBE000857
:10023B000DBD00040BEB6014A2D5EB13FCED92E7A4
:10024B00FD2274FFFCFDFEFF22E480F8A2D574FFB3
:10025B0013FC7D80E480EFF920E73624F950037915
:10026B0007E4F42402FBE582158270021583DBF6AA
:10027B00E024FB501BE96014E4F0E5821582700268
:10028B001583E004F0B40A08E4F0D9EE7401F00A27
:10029B0022C2D522ED33EC3392D5FA602AB4FF3368
:1002AB00EDC2E77BFF60067A0279C4E4227A027919
:1002BB00CD20D5047A0279C8224E614E002B494ECF
:1002CB0046002D494E4600E47A08F0A3DAFC7B0089
:1002DB00740722C083C082ECC0E0EDC0E0EEC0E04A
:1002EB00EFC0E0EA75F010A4CAABF075F04DA42B8B
:1002FB00FBE435F0FCEA2410FAEB34C5FBEC34D903
:10030B00FCEDC2E7FF75F056A4F42411C5F0F434EC
:10031B00C58FF0A42AE5F03BE43CF020E71412056E
:10032B00D2D0E0FFD0E0FED0E0FDD0E0FC12010621
:10033B008014F4041205D2D0E0FFD0E0FED0E0FD33
:10034B00D0E0FC12049CD082D083E0FAEDD2E7CD52
:10035B0033EC332482FBE4C3CF33CFCE33CECD3358
:10036B00CD33DBF37B0775F00A846004F0A31B0A23
:10037B00E5F0F0A38FF0740AA4FFACF08EF0740AD2
:10038B00A42CFEACF050010C8DF0740AA42CFDE4EF
:10039B0035F0F0A3DBDE74072202024DE86480F82F
:1003AB00E933E83360110460F0ED33EC337009E8A6
:1003BB00FCE9FDEAFEEBFF220460DED3EB9FEA9E35
:1003CB00E99DE8C2E78CF0C2F795F0400CE8CCF859
:1003DB00E9CDF9EACEFAEBCFFB12021885D0F05833
:1003EB0004700320D5B3E80470075002B2D50202A3
:1003FB005792D5EC0460F7E4CCC0E0C398F8603BAF
:10040B0094186008400DD0E0FB02022FE4FBFAC900
:10041B00FC8028E830E406E4C9FBE4CAFCE830E3DE
:10042B0005E4C9CACBFCE854076010F8C3E913F91B
:10043B00EA13FAEB13FBEC13FCD8F130F52FC3E402
:10044B009CFCEF9BFFEE9AFEED99FDD0E0FBEF4E8F
:10045B004D4C701222DB03020254EC2CFCEF33FFE9
:10046B00EE33FEED33FDED30E7EB02022FEF2BFF0A
:10047B00EE3AFEED39FDD0E0FB50130BBB0003024F
:10048B000257ED13FDEE13FEEF13FFEC13FC02020C
:10049B002FEC4D6011E8497017ED33EC3304600D10
:1004AB00E4FCFFFEFD22E933E8330470F802024D51
:1004BB0012021858046009E4CC2481500628500914
:1004CB00020257284003020254C0E0EB4A7044B9C1
:1004DB008006D0E0FB020243EF4E701CBD8008EBA0
:1004EB00FFEAFEE9FD80EBE98DF0A4FEE5F00205E5
:1004FB0085E9CDF9EAFEEBFFEF89F0A4FCE5F0CE40
:10050B0089F0A42EFFE435F0CD89F0A42DFEE4355F
:10051B00F08067EF4E7005BD80D780C3EF8BF0A4E2
:10052B00ACF0EE8BF0A42CFCE435F0F8EF8AF0A4E1
:10053B002CE5F038FCE433CB8DF0A42CFCE5F03B40
:10054B00F8EE8AF0A42CFCE5F038F8E433CF89F010
:10055B00A42CFCE5F038CF3400CE89F0A42FFFE5B6
:10056B00F03EFEE433C98DF0A42EFEE5F039CD8AC2
:10057B00F0A42FFFE5F03EFEE43DFD33D0E0FB5051
:10058B00070BBB000F020257EC2CFCEF33FFEE33D3
:10059B00FEED33FD02022F3F8000004120000042A0
:1005AB00C80000447A0000461C400047C350004975
:1005BB007424004B1896804CBEBC205A0E1BCA6785
:1005CB0053C21C749DC5AEFB60065407601C2323ED
:1005DB00120600EB543860091205EC1205FB1204ED
:1005EB009CECF8EDF9EEFAEFCB22EB1205FB80F168
:1005FB00543803241C9005A2FE93FC0EEE93FD0EC3
:10060B00EE930ECE93FF22BB010689828A83E022F2
:10061B005002E722BBFE02E32289828A83E4932203
:10062B00BB010CE58229F582E5833AF583E0225084
:10063B0006E92582F8E622BBFE06E92582F8E222CE
:10064B00E58229F582E5833AF583E49322BB010623
:10065B0089828A83F0225002F722BBFE01F322C566
:10066B00F0F8A3E028F0C5F0F8E5821582700215CA
:10067B0083E038F022C3E49FFFE49EFEE49DFDE49B
:10068B009CFC22E8600FECC313FCED13FDEE13FE94
:10069B00EF13FFD8F122E0FCA3E0FDA3E0FEA3E003
:1006AB00FF22ECF0A3EDF0A3EEF0A3EFF022E0FBC2
:1006BB00A3E0FAA3E0F922F8E0FBA3A3E0F925F00D
:1006CB00F0E582158270021583E0FA38F022EBF028
:1006DB00A3EAF0A3E9F022D083D082F8E49370125E
:1006EB00740193700DA3A393F8740193F58288831F
:1006FB00E4737402936860EFA3A3A380DFE508247F
:10070B0003F582E43480F583E00508229080003005
:10071B000703908003E475F0011206C20206122053
:10072B0000E97F2ED2008018EF540F2490D4344070
:10073B00D4FF30040BEF24BFB41A0050032461FF25
:10074B00E50960021509050CE50C7002050B300775
:10075B000E908000E475F0011206C2EF02065802FB
:10076B000CDE7403D2078003E4C207F50890800007
:10077B001206D9E4F509F50BF50CE50960077F20A6
:10078B0012074B80F5750AFFC201C200C202C203F9
:10079B00C205C206C208120717FF700D3007057F8E
:1007AB000012075CAF0CAE0B22B4255FC2D5C2049E
:1007BB00120717FF24D0B40A00501A75F00A7809F3
:1007CB0030D50508B6FF0106C6A426F620D5047061
:1007DB0002D20380D924CFB41A00EF5004C2E5D261
:1007EB0004020A4ED20180C6D20080C0D20280BC65
:1007FB00D2D580BAD20580B47F2012074B200207D6
:10080B007401B5090040F1120708FF12074B0207EC
:10081B0085D208D2068095120708FB120708FA1238
:10082B000708F94A4B7006794C7A0B7BFF20022E96
:10083B00E509602A7E008E8275830012062B600606
:10084B000EEE650A70F0C2D5EBC0E0EAC0E0E9C07D
:10085B00E0EE120AAFD0E0F9D0E0FAD0E0FB1206DE
:10086B0012FF60AAEBC0E0EAC0E0E9C0E012074B60
:10087B00D0E02401F9D0E03400FAD0E0FBE50A0423
:10088B0060DCD50AD98087D20280A2120A9160F768
:10089B00E50A700104120262A90A600DE50A6009FB
:1008AB0014F50A120B39EF60F3EA30E702F404C3D4
:1008BB00995079EAF4250A0430E701E404F50A803B
:1008CB000D120A9160C1EA050A250A120262EA902A
:1008DB00802FF030E701E4250A04D50A0420050136
:1008EB0014120AAFE4C0E0120B3990802FE06013B2
:1008FB0020E70714F0120733802204F0D0E014C075
:10090B00E07F00120733E50A600712072A150A80F9
:10091B000B30050312072AD0E0020785D0E00480D4
:10092B00C4120A91609EE50A0412026290802FEABB
:10093B00F0E50A2005026001042404120AAF74FFDB
:10094B0004C0E0120B39120733E50A2005026003DD
:10095B0012072AD0E0B50AE87F4512073D90802F99
:10096B00E07F2B30E7047F2DF404C0E012074BD05F
:10097B00E075F00A84C0F0120734D0E0120734029D
:10098B000785791080027908C206C2088008D2D583
:10099B00790A8004790AC2D5E50A047002F50AE4E3
:1009AB00FAFDFEFF120708FC7B0820011312070853
:1009BB00FD7B1030000A120708FE120708FF7B2090
:1009CB00EC3382D592D55013C3E43000069FFFE47D
:1009DB009EFEE42001039DFDE49CFCE4CBF8C201E8
:1009EB00EC700CCFCECDCCE824F8F870F38017C3A5
:1009FB00EF33FFEE33FEED33FDEC33FCEB33FB99C2
:100A0B004002FB0FD8E9EB300105F8D0E0C448B247
:100A1B0001C0E00AEC4D4E4F78207B0070C2EAB566
:100A2B000A0040BCC0E0120AB1D0F0D0E0200104B3
:100A3B00C4C0E0C4B201C0F0120734D0F0D5F0EB63
:100A4B000207851206E2082253098D5807F34C075B
:100A5B00EF4209914F099944099949080843099FA5
:100A6B005508CC46092C450896470B6C5007F72DBB
:100A7B0007FB2E081E2B07FF23081C200B552A07EC
:100A8B00B74800000816E50AB4FF03750A061207FB
:100A9B0008FC120708FD120708FE120708FF9080DA
:100AAB002802029F790AA2D5200314300509B91038
:100ABB00020404B9080104A2D52006025001042047
:100ACB0002689202B509005034C0E07F2030031950
:100ADB007F30A20272067205500F120B08C202C2BF
:100AEB0006C205C2087F30800F300503E9C0E01253
:100AFB00074B300503D0E0F9D0E0B509CC30051732
:100B0B007F30B9100C12074B7F583004077F788069
:100B1B0003B9080312074B3002057F2D02074B7FE9
:100B2B00202008F87F2B2006F322920280CF7F0033
:100B3B00B40700500B2428F582E43480F583E0FFE2
:100B4B0022286E756C6C2900D2011207083001F84F
:100B5B00C201780930D50108F60207B72D50434979
:100B6B00581207082403B405004001E4900B679367
:100B7B0012073C743A12073CD20375090402098D23
:100B8B009080001206AD43C94053B7CF43B71075E1
:100B9B00985075D88053877F9080001206A1E4127D
:100BAB0001A3A804A905AA06AB077F007EE07D443C
:100BBB007C4A1201061201E1C3E49FFF74049EFEFE
:100BCB00E4FCFD9080001206AD9080001206A17827
:100BDB000812068E8FBA9080001206A18FAAD2AC93
:100BEB00D2AF22908000EEF0A3EFF0E4A3F0A3F0DD
:100BFB00908000E0FEA3E0FFA3E0FCA3E0C39FEC2A
:100C0B009E502CE4A3F0A3F0908004E0FEA3E0C37D
:100C1B0094B8EE940B500C908004E475F00112061E
:100C2B006A80E5908002E475F00112066A80C122A9
:100C3B00C0E0C083C082C0D075D000C000C00675B4
:100C4B008CBC758ACD781006E618700106780FE615
:100C5B00FE08E6B4E810EEB4030C9080327401F099
:100C6B00187600087600D006D000D0D0D082D08382
:100C7B00D0E032C2AFC2D3C2D4E4F58E75C870F5E2
:100C8B0093759401759502F5C9F5F875F901F5A8F9
:100C9B00F5B8F59AF5A9F5B953C9FD22C0E0C0D056
:100CAB0075D000C000C006C2C6780DE6FE08E64E41
:100CBB006006E61618700116D006D000D0D0D0E032
:100CCB0032908031EFF0C2ACE0F5993099FDC299CA
:100CDB00D2AC22908030EFF0E0FF120CCC90803041
:100CEB00E0FF225389FC438901D2A9D2AFD28C22D7
:100CFB00020D0000020F00000068656C6C6F20771E
:0E0D0B006F726C64200D0A006767670D0A00A6
:00000001FF
